:020000040000FA
:06000000F0EF0AF012000F
:06100000F0EF0AF01200FF
:0610080086EF09F0120062
:061018008FEF09F0120049
:06102A0002002E1600007A
:101030006A000000030000002C1600006D00000094
:0410400002000000AA
:0C104400030E926E040E936E946A8A866E
:101050008B8C8B8E8B848B828B80898A8988898606
:1010600089848A828A988A9A010EC26E0D0EC16E98
:10107000AE0EC06EF19E1200D9CFE6FFE1CFD9FFD0
:10108000FE0EDB0402E18A9601D08A86E552E7CFA4
:10109000D9FF1200D9CFE6FFE1CFD9FF650EF36E7D
:1010A000FE0EDBCFF4FFF350F45C03E2FE0EDBCF69
:1010B0006AF0E552E7CFD9FF12008150040B01E03E
:1010C000010E00D01200D9CFE6FFE1CFD9FF020E0A
:1010D000E126640E00016A5D05E10A0EDF6EDE5254
:1010E000DD6E27D00A0E106E10C00EF06AC009F037
:1010F000FEEC0AF00550DF6E0A0E00016A5D16E391
:10110000640E116E11C00EF06AC009F0FEEC0AF018
:1011100005C010F00A0E126E12C00EF010C009F0D9
:10112000FEEC0AF0010E09C0DBFF03D0DE520A0E0E
:10113000DD6E00016B2B6B0506E18B9CDFCFE6FFBC
:1011400043D8E55224D0050ED8806C556B5D06E17E
:101150008B8C0A0EE66E38D8E55219D0060E6B5D00
:1011600007E18B9E010EDBCFE6FF2ED8E5520FD0B4
:101170000A0ED8806C556B5D06E18B8E0A0EE66E0A
:1011800023D8E55204D00A0E6B5D01E36B6B020EAF
:10119000E15C02E2E16AE552E16EE552E7CFD9FF98
:1011A0001200D9CFE6FFE1CFD9FF040EF36EFE0E99
:1011B000DBCFF4FFF350F45C03E2FE0EDBCF6CF008
:1011C000E552E7CFD9FF1200D9CFE6FFE1CFD9FF33
:1011D0003C0E8912070E8B12FE0EDB50090A3DE011
:1011E000010A36E00F0A30E0010A29E0030A22E092
:1011F000010A1BE0070A14E0010A0DE0030A08E0F7
:10120000010A01E02FD0C70E8916F80E8B162AD0DE
:10121000FC0E8B1627D0CB0E8916F90E8B1622D01A
:10122000DB0E8916F80E8B161DD0F30E8916FC0EF8
:101230008B1618D0D30E8916FA0E8B1613D0C30E48
:101240008916FA0E8B160ED08996F80E8B160AD0D8
:10125000C30E8916F80E8B1605D0D30E8916F80E1C
:101260008B1600D0E552E7CFD9FF1200E66A2AD8E4
:10127000E552F3CF06F0F4CF07F0086A096AE80EEA
:101280000B6E030E0C6E0D6A0E6A40EC0AF002C083
:1012900006F003C007F004C008F005C009F09C0E7A
:1012A000065E8F0E075A010E085A000E095AFE0EEE
:1012B0000B6E070E0C6E0D6A0E6A78EC0AF0065083
:1012C00000D01200D9CFE6FFE1CFD9FFFE0EDB50F0
:1012D000010A0CE0010A01E012D0010EC26EC282C6
:1012E000C2B2FED70CEC0BF00DD009D0050EC26EC9
:1012F000C282C2B2FED70CEC0BF004D000D0F36A6D
:0C130000F46A00D0E552E7CFD9FF1200DC
:04130C00DACFE4FF51
:10131000E2CFDAFFE652E552E5CFDAFF1100D8CF8F
:10132000E4FFE0CFE4FFE46EDACFE4FFE2CFDAFFE0
:10133000E652E552E5CFDAFFE550E5CFE0FFE5CF35
:10134000D8FF100022EC08F0E66A4AEC08F0E552FB
:10135000020EE66ED1EC08F0E5520C0EE66ED0EC13
:101360000AF0E55263EC08F000016D07000E6E5BB9
:101370006D516E110AE1F40E6D6F010E6E6F36EC59
:1013800009F0E66E4AEC08F0E552010EE66E62ECFA
:1013900009F0E552F3CF10F0F4CF11F0020ED8901F
:1013A00010361136E806FBE10A0E0F0B05E0D89067
:1013B00011321032E806FBE11050E66ED1EC08F075
:1013C000E5525DEC08F0000906E1010EE66E3CEC2A
:1013D00008F0E55204D0E66A3CEC08F0E552BDD7CF
:0213E0001200F9
:0E13E2002A0EF66E100EF76E000EF86E000169
:1013F0000900F550656F0900F550666F03E16567F8
:1014000001D03DD00900F550606F0900F550616FC3
:101410000900F550626F09000900F550E96E0900F6
:10142000F550EA6E090009000900F550636F0900E4
:10143000F550646F09000900F6CF67F0F7CF68F048
:10144000F8CF69F060C0F6FF61C0F7FF62C0F8FF37
:101450000001635302E1645307E00900F550EE6EAA
:101460006307F8E26407F9D767C0F6FF68C0F7FFC3
:1014700069C0F8FF00016507000E665BBFD7120068
:1014800006500B02F3CF02F0F4CF03F00C02F3503E
:101490000326000EF420046E06500D02F3500426BD
:1014A000000EF420056E06500E02F350052607507C
:1014B0000B02F3500326F4500422000E05220750BD
:1014C0000C02F3500426F450052207500D02F3508D
:1014D000052608500B02F3500426F450052208504C
:1014E0000C02F350052609500B02F350052612009A
:1014F000006AE86A0EAE85EF0AF00B6C0C1E0D1E3A
:101500000E1E0C220D220E22001E09AE90EF0AF0D4
:10151000066C071E081E091E072208220922001E4B
:10152000ACEC0AF009BEA7EF0AF000AE000C066CA6
:10153000071E081E091EE86A072208220922026CFB
:10154000031E041E051E032204220522000C00BEF9
:0815500097EF0AF00188FF0C7F
:08155800056A046A036A026AD5
:10156000200EE76ED8900636073608360936023662
:101570000336043605360B50025C0C5003580D50F0
:1015800004580E50055809E30B50025E0C50035AE4
:101590000D50045A0E50055A062AE72EE4D71200C1
:1015A000FF0EE350146E480E01D04C0EE76EE72E8E
:1015B000FED7E76AE72EFED7142EF7D700001200F9
:1015C000000EF36E00EE00F0040E01D81200EA6087
:1015D00002D0EE6AFCD7F350E9601200EE6AFCD745
:1015E00013EE00F023EE00F0F86A019CF1EC09F034
:0C15F00015EC0BF0A2EC09F0FBD7120088
:0415FC00056A080E66
:10160000E76ED890093605360E50055C02E3056E8C
:08161000092AE72EF7D71200AA
:08161800C450136E126AC350A6
:0A1620001210F36E13C0F4FF120065
:02162A001200AC
:02162C00F401C7
:02162E000000BA
:0116300000B9
:020000040030CA
:01000000E11E
:010001003EC0
:01000200E11C
:01000300E01C
:01000500F802
:010006009A5F
:01000800FFF8
:01000900FFF7
:01000A00FFF6
:01000B00FFF5
:01000C00FFF4
:01000D00FFF3
:00000001FF
