:020000040000FA
:0600000037EF16F01200BC
:0600080004EF08F01200F5
:060018000CEF08F01200DD
:0610000037EF16F01200AC
:061008008DEF10F0120054
:06101800D8EF10F01200F9
:06102A000200C32C0000CF
:101030009900000003000000BA2C0000900000009E
:0410400009000000A3
:0C104400D9CFE6FFE1CFD9FFE652A09A19
:101050006A6A686A160E6F6E9F0E6B6E7B0E696E03
:101060006D8C6E6A010EE66EE66AE66A710EE66ED9
:101070000F0EE66E0DEC16F0106E050EE15E1050D0
:101080006D9CDF6ADF50106E116A080E105C000E56
:10109000115810E2DF50040DF3CFE9FFF4CFEAFF5F
:1010A000000EE926040EEA22EE6AEE6AEE6AEE6AA5
:1010B000DF2AE8D7160E706E68A602D06896FCD7B5
:1010C0000001736B786B796B7A6B6D98DF6A020E37
:1010D000DF5C18E2EA6ADF34FE0BEA36E96E6B0E7B
:1010E000E926000EEA22EE6AED6AEA6ADF34FE0BB8
:1010F000EA36E96E670EE926000EEA22EE6AED6A2C
:10110000DF2AE5D70001080E6B6F040E6C6F616B70
:10111000606BE552E552E7CFD9FF1200D9CFE6FF69
:10112000E1CFD9FFE6520001600507E16DBA05D0B5
:10113000686A69806988020E606F6850040B05E078
:101140006950040B02E06894B7D86DB25FD0685064
:10115000010B16E06950010B13E074DFD08EA28AF8
:10116000A08AF28E0001040E606F0401200E026F4F
:10117000040E036F080E016F006B8C0E0013689055
:101180006850100B05E06950100B02E083D8689896
:101190006850400B13E06950400B10E0010EE66E02
:1011A000E66A000EE66EE66A730EE66EE66A85ECA7
:1011B00012F0106E060EE15E1050689C6850200B15
:1011C00004E06950200B01E04CD86850020B13E09A
:1011D0006950020B10E0010EE66EE66A000EE66E44
:1011E000E66AE6687F0EE66E85EC12F0106E060E7B
:1011F000E15E10506A6A040E0001E76E6019E8AE05
:1012000002D0E73402D0E750605D02E2A19A24D018
:1012100069A621D0DF6A040EDF5C1DE268A61BD040
:101220006CCF80F06896780E0001801502E159D8E5
:1012300010D0000EE66EE66A800EE66E000EE66ED8
:10124000720EE66EE66A85EC12F0106E060EE15E36
:101250001050DF2AE0D7A19AE552E552E7CFD9FF37
:10126000120070A015D063C0E9FF64C0EAFFEF5020
:1012700080080DE16BC0E9FF6CC0EAFFEF50840805
:1012800006E163C0E9FF64C0EAFF8C0EEF6E709068
:10129000689A1200698468986D82000EE66EE66AAC
:1012A000E66EE66A750EE66EE66A85EC12F0106E82
:1012B000060EE15E10501200000EE66EE66AE66E63
:1012C000E66A740EE66EE66A85EC12F0106E060EA3
:1012D000E15E10506D92699468A402D06894FCD7C6
:1012E0001200D9CFE6FFE1CFD9FFE652FD0E000193
:1012F00080155AE17E0E8015E8407F0B040DF3CF78
:1013000063F0F4CF64F0000E6327040E642363C01F
:1013100065F064C066F0657563C0E9FF64C0EAFF0C
:10132000EF503C0BE842E8420D083CE163C0E9FFA6
:1013300064C0EAFF020EE926000EEA22EECF10F0AA
:10134000EFCF11F0280E10182BE1040E111828E130
:1013500063C0E9FF64C0EAFF020EE926000EEA223C
:10136000200EEE6E040EED6EDF6ADF50106E116A15
:10137000080E105C000E115813E2DF50EA6A280FC5
:10138000E96E040EEA22EF50E66EDF50EA6A200FA3
:10139000E96E040EEA22E552E750EF6EDF2AE5D748
:1013A0000DD807D02ED805D0FD0E8015040801E118
:1013B0004ED8E552E552E7CFD9FF12006BC0E9FFE6
:1013C0006CC0EAFFEF50800B05E06BC0E9FF6CC01A
:1013D000EAFFEF6A00016F6B706B746B756B736B78
:1013E000B2D8000EE66EE66AE66EE66A030EE66EB8
:1013F000E66A85EC12F0106E060EE15E105038EFD2
:101400000CF0020E0001705D02E193EF0DF069D85F
:10141000000181511AE165C0E9FF66C0EAFFEE52A2
:10142000080EEF6E65C0E9FF66C0EAFF020EE9260E
:10143000000EEA22200EEE6E040EED6E65C0E9FF8E
:1014400066C0EAFF8C0EEF6E1200816B1200D9CFDE
:10145000E6FFE1CFD9FFE6526BC0E9FF6CC0EAFFBF
:10146000EF50400B01E0010EDF6E00016B75080EBE
:10147000605D09E122C46EFF6E50000802E2100EAA
:1014800001D0040E606F700526E16BC0E9FF6CC0EF
:10149000EAFF020EE926000EEA22280EEE6E040E86
:1014A000ED6EB8DA020E00016F5D06E16BC0E9FF78
:1014B0006CC0EAFF840E0DD0DF5006E16BC0E9FF7F
:1014C0006CC0EAFFC80E05D06BC0E9FF6CC0EAFF34
:1014D000880EEF6E01D005D8E552E552E7CFD9FF6F
:1014E0001200D9CFE6FFE1CFD9FF020EE1260001BD
:1014F000706B6BC0E9FF6CC0EAFFEF6A040E6B19FA
:10150000106E6CC011F0DE6E6CC0DDFFDECFE9FF47
:10151000DDCFEAFFEF6A78AF0CD07B517C1107E09A
:1015200005D07CC0FAFF00017B51F96EFADF0001A3
:10153000789F020EE15C02E2E16AE552E16EE5525B
:10154000E7CFD9FF120004012051600BE842E842C6
:10155000E842E842E842000901E0120021510C0A89
:1015600050E00B0A3FE00C0A31E0010A22E00B0ACE
:101570001EE0020A1CE0030A18E0080A10E0010A53
:101580000CE00F0A08E0030A01E012000001738F6B
:10159000080E606F120087EF0BF02FEF0EF00001C6
:1015A000610E716F000E726F0CD0DEEF0BF002EF68
:1015B0000BF024510001716F726B620E7127000EE7
:1015C00072237381010E746F738F12000001738F89
:1015D00004012451EA6A620FE96E000EEA2222C475
:1015E000EFFF1200000EE66EE66AE66EE66A020E95
:1015F000E66EE66A85EC12F0106E060EE15E1050A3
:1016000012001200D9CFE6FFE1CFD9FF040EE12688
:101610000401220510E120511F0B00090CE100011B
:10162000738F030E0401215D04E10001010E7F6F41
:1016300002D000017F6B040122515FE120511F0B9A
:1016400002085BE124510F0B000957E00001738F82
:10165000040124BF0BD024510F0BE96EEA6AD89025
:10166000E936EA36670EE926000E0AD024510F0B40
:10167000E96EEA6AD890E936EA366B0EE926000E82
:10168000EA22EECFDEFFEDCFDDFF030E215D06E1A6
:10169000DECFE9FFDDCFEAFF840E2ED024510F0B01
:1016A000116A700F106E0F0E1122020E10C0DBFFB8
:1016B000030E11C0DBFF020EDBCFE9FF030EDBCF11
:1016C000EAFFEF9024AF0CD0DECFE9FFDDCFEAFFD9
:1016D000EF6ADF74DECFE9FFDDCFEAFF400E0CD00A
:1016E000DECFE9FFDDCFEAFF880EEF6EDF74DECFDD
:1016F000E9FFDDCFEAFFC80EEF6E040EE15C02E207
:10170000E16AE552E16EE552E7CFD9FF1200800EA3
:101710000401205D52E10001C00E736F04012351EA
:10172000030A29E0010A09E0030A45E10001F40E79
:10173000716F280E726F120E38D02251F66EF76A52
:10174000D890F636F7369A0EF626290EF7220900BB
:10175000F5CF71F00A00F5CF72F0020E0001F76AC2
:101760007125F66E7251F7220900F5CF74F00A0068
:10177000F5CF75F01200030E225D1AE22251F66ECB
:10178000F76AD890F636F7369C0EF626290EF72221
:101790000900F5CF71F00A00F5CF72F071C0F6FFC5
:1017A00072C0F7FF0800F5500001746F756B1200EE
:1017B0000001736B12000001736B1200D9CFE6FFBA
:1017C000E1CFD9FF020EE1260401286B296B2051DD
:1017D0001F0B020A11E0030A0CE0010A35E10001C7
:1017E000738F0401288100017F052EE10401288305
:1017F0002BD00001738F28D00001738F040124BF08
:101800000BD024510F0BE96EEA6AD890E936EA361C
:10181000670EE926000E0AD024510F0BE96EEA6A22
:10182000D890E936EA366B0EE926000EEA22EECFB2
:10183000DEFFEDCFDDFFDECFE9FFDDCFEAFFEF50CA
:10184000040B02E0010E286F000173AF07D0280ED1
:10185000716F040E726F7381020E746F020EE15C81
:1018600002E2E16AE552E16EE552E7CFD9FF1200EC
:101870006D98000173BF47D078AF26D0020E706F0D
:101880006BC0E9FF6CC0EAFFEE52EF6A6BC0E9FF84
:101890006CC0EAFFC80EEF6E65C0E9FF66C0EAFFE4
:1018A000EE52080EEF6E65C0E9FF66C0EAFF020E59
:1018B000E926000EEA22280EEE6E040EED6E65C0DB
:1018C000E9FF66C0EAFF7AD065C0E9FF66C0EAFFBB
:1018D000EE52080EEF6E65C0E9FF66C0EAFF020E29
:1018E000E926000EEA22200EEE6E040EED6E65C0B3
:1018F000E9FF66C0EAFF8C0EEF6E6BC0E9FF6CC0BB
:10190000EAFF840E5CD078BF84D0040120AF59D0A8
:10191000000174510401265D00017551040127592D
:1019200004E226C474F027C475F074D80001010ED7
:10193000706F65C0E9FF66C0EAFFEE52080EEF6EF9
:1019400065C0E9FF66C0EAFF020EE926000EEA2242
:10195000200EEE6E040EED6E65C0E9FF66C0EAFF74
:10196000800EEF6E816B63C0E9FF64C0EAFFEE5248
:10197000080EEF6E63C0E9FF64C0EAFF020EE926BD
:10198000000EEA22200EEE6E040EED6E63C0E9FF3B
:1019900064C0EAFF840EEF6E010E816F6BC0E9FF39
:1019A0006CC0EAFF020EE926000EEA22280EEE6E57
:1019B000040EED6E6BC0E9FF6CC0EAFFC80EEF6E5F
:1019C00012000001020E706F6BC0E9FF6CC0EAFFED
:1019D000EE52EF6A6BC0E9FF6CC0EAFFC80EEF6E13
:1019E00065C0E9FF66C0EAFFEE52080EEF6E65C003
:1019F000E9FF66C0EAFF020EE926000EEA22280E81
:101A0000EE6E040EED6E65C0E9FF66C0EAFFC80E1B
:101A1000EF6E1200D9CFE6FFE1CFD9FF020EE1262B
:101A20000001080E745D000E75590DE274C0DEFFF2
:101A300075C0DDFF6F5102E1010E03D06F0506E1B5
:101A4000020E6F6F03D0080EDE6EDD6A6BC0E9FF19
:101A50006CC0EAFFEF926BC0E9FF6CC0EAFFEF9049
:101A60006BC0E9FF6CC0EAFF010EDB50EF126BC0E8
:101A7000E9FF6CC0EAFFEE52DFCFEFFF000EDB5054
:101A8000745F010EDB50755B280E7D6F040E7E6F58
:101A900073B120D0D9CFE9FFDACFEAFFEE50ED10D5
:101AA00038E071C0F6FF72C0F7FF712B000E722391
:101AB0000800F550E66E7DC0E9FF7EC0EAFF7D2B91
:101AC000000E7E23E552E750EF6EDF06010EE2E2E4
:101AD000DB06E0D7D9CFE9FFDACFEAFFEE50ED1011
:101AE00018E071C0E9FF72C0EAFF712B000E72238B
:101AF000EF50E66E7DC0E9FF7EC0EAFF7D2B000E51
:101B00007E23E552E750EF6EDF06010EE3E2DB06CF
:101B1000E1D7020EE15C02E2E16AE552E16EE552D4
:101B2000E7CFD9FF1200D9CFE6FFE1CFD9FF020EF0
:101B3000E12663C0E9FF64C0EAFFEE52EFCFDFFFAA
:101B4000DFCF10F010500001795D000E7A5902E2EB
:101B500079C0DFFFDF50106E116AE850795D796F50
:101B600011507A597A6F010EDB6ADF50F36E010E65
:101B7000DBCFF4FFF350F45C16E2010EDB50EA6AAF
:101B8000280FE96E040EEA22EF50E66E76C0E9FFF8
:101B900077C0EAFF762B000E7723E552E750EF6E11
:101BA000010EDB2AE2D7000ED8807955000E7A5557
:101BB00027E265C0E9FF66C0EAFFEE52080EEF6E4D
:101BC00065C0E9FF66C0EAFF020EE926000EEA22C0
:101BD000280EEE6E040EED6E63C0E9FF64C0EAFFEE
:101BE000EF50400B06E165C0E9FF66C0EAFFC80E92
:101BF00005D065C0E9FF66C0EAFF880EEF6E25D00C
:101C000065C0E9FF66C0EAFFEE52080EEF6E65C0E0
:101C1000E9FF66C0EAFF020EE926000EEA22200E66
:101C2000EE6E040EED6E65C0E9FF66C0EAFF840E3D
:101C3000EF6E7B517C1107E005D07CC0FAFF0001FC
:101C40007B51F96EFADF0001789F020EE15C02E23F
:101C5000E16AE552E16EE552E7CFD9FF1200D9CF34
:101C6000E6FFE1CFD9FFE6520001738F010EE66E69
:101C7000E66AE66A710EE66E0F0EE66E0DEC16F081
:101C8000106E050EE15E1050DF6ADF50106E116AB3
:101C9000080E105C000E115810E2DF50040DF3CF57
:101CA000E9FFF4CFEAFF000EE926040EEA22EE6A0D
:101CB000EE6AEE6AEE6ADF2AE8D76D8C010EE66EF8
:101CC000E66AE66A620EE66E000EE66E0DEC16F04F
:101CD000106E050EE15E10506D9C0001080E6B6FDA
:101CE000040E6C6F000E636F040E646F63C065F0CA
:101CF000666F22C461F0615102E1100E12D0010E34
:101D0000E66EE66A610EE66E000EE66E010EE66EA7
:101D1000E66A85EC12F0106E060EE15E10500001CE
:101D2000200E606FE552E552E7CFD9FF1200D9CF00
:101D3000E6FFE1CFD9FF020EE126000EDE6E040EB3
:101D4000DD6EFD0EDB50E824126EFE0EDB50040D3E
:101D5000F3501224040DF350106E116A020E0F0B93
:101D600005E0D89011321032E806FBE1D890103629
:101D70001136D89010361136D9CFE9FFDACFEAFF05
:101D80001050EE261150ED22DECFE9FFDDCFEAFF45
:101D9000EF9EFD0EDB500AE1FE0EEA6ADB34FE0B1D
:101DA000EA36E96E670EE926000E09D0FE0EEA6AF1
:101DB000DB34FE0BEA36E96E6B0EE926000EEA22F2
:101DC000DECFEEFFDDCFEDFFDECFE9FFDDCFEAFFB7
:101DD000EF9CDECFE9FFDDCFEAFF040EE926000E1F
:101DE000EA22EF8C020EE15C02E2E16AE552E16E6A
:101DF000E552E7CFD9FF1200D9CFE6FFE1CFD9FFF7
:101E0000020EE126FE0EDB50116A700F106E0F0EEF
:101E1000112210C0DEFF11C0DDFFDECFE9FFDDCFF4
:101E2000EAFFFD0EDBCFEFFFDBA407D0E66AFE0E74
:101E3000DBCFE6FF7CDFE552E552FD0EDBA208D0EA
:101E4000010EE66EFE0EDBCFE6FF71DFE552E552D6
:101E5000020EE15C02E2E16AE552E16EE552E7CF93
:101E6000D9FF1200D9CFE6FFE1CFD9FF020EE1265C
:101E7000FE0EDB5020E165C0E9FF66C0EAFFEE52CE
:101E8000080EEF6E65C0E9FF66C0EAFF020EE926A4
:101E9000000EEA22200EEE6E040EED6E65C0E9FF24
:101EA00066C0EAFF8C0EEF6E6BC0E9FF6CC0EAFF04
:101EB000840EEF6E3BD0FD0EDB50E824126EFE0E5A
:101EC000DB50040DF3501224040DF3CF10F0F4CFC7
:101ED00011F0000E1026040E112210C0DEFF11C0FA
:101EE000DDFF840EDECFE9FFDDCFEAFFE850EF1221
:101EF000FD0EDB50E824126EFE0EDB50040DF35095
:101F00001224010F040DF3CF10F0F4CF11F0000EE6
:101F10001026040E112210C0DEFF11C0DDFF840E5A
:101F2000DECFE9FFDDCFEAFFE850EF12020EE15C01
:101F300002E2E16AE552E16EE552E7CFD9FF120015
:101F4000D9CFE6FFE1CFD9FF020EE126FD0EDB502F
:101F50000AE0FE0EEA6ADB34FE0BEA36E96E6B0E2F
:101F6000E926000E09D0FE0EEA6ADB34FE0BEA36E3
:101F7000E96E670EE926000EEA22EECFDEFFEDCF16
:101F8000DDFFD9CFE9FFDACFEAFFEE50ED1003E134
:101F9000F36AF46A44D0DECFE9FFDDCFEAFF020E38
:101FA000E926000EEA22FB0EDBCFEEFFFC0EDBCFB4
:101FB000EDFFDECFE9FFDDCFEAFFEE52FA0EDBCF19
:101FC000EFFF400EDECFE9FFDDCFEAFFE850EF166E
:101FD000880EDECFE9FFDDCFEAFFE850EF12FD0EFD
:101FE000DB500AE0FE0EEA6ADB34FE0BEA36E96EED
:101FF0006B0EE926000E09D0FE0EEA6ADB34FE0BFA
:10200000EA36E96E670EE926000EEA22EF74DECFAB
:1020100010F0DDCF11F010C0F3FF11C0F4FF020E7D
:10202000E15C02E2E16AE552E16EE552E7CFD9FFF9
:102030001200D9CFE6FFE1CFD9FF6DA84ED0FE0E3A
:10204000EA6ADB34FE0BEA36E96E6B0EE926000E17
:10205000EA22EE50EFCFEAFFE96E400EEE16EE6A8E
:10206000EE6AEE6AFE0EEA6ADB34FE0BEA36E96ED1
:102070006B0EE926000EEA22EE50EFCFEAFFE96E82
:10208000EE7CFE0EEA6ADB34FE0BEA36E96E6B0E7E
:10209000E926000EEA22EF74400E106EFE0EEA6A88
:1020A000DB34FE0BEA36E96E6B0EE926000EEA22FF
:1020B000EE50EFCFEAFFE96E1050EF16FE0EEA6A1F
:1020C000DB34FE0BEA36E96E6B0EE926000EEA22DF
:1020D000EE50EFCFEAFFE96EEF7CE552E7CFD9FF94
:1020E00012006D6A696A0001606B120000016051A4
:1020F00013E16D6A696A160E6F6E9F0E6B6E7B0E32
:10210000696ED08EA28AA08AF28E6DB602D06D86DC
:0A211000FCD70001010E606F120001
:06211A00DACFE4FFE2CF82
:10212000DAFFE9CFE4FFEACFE4FFF6CFE4FFF7CF31
:10213000E4FFF5CFE4FFF3CFE4FFF4CFE4FFFACF01
:10214000E4FF00EE00F0100EE80403E3EECFE4FF3E
:10215000FBD700EE10F0040EE80403E3EECFE4FF3B
:10216000FBD7E6528EEC08F0E55200EE13F0040EB9
:10217000E80403E3E5CFEDFFFBD700EE0FF0100E10
:10218000E80403E3E5CFEDFFFBD7E5CFFAFFE5CFAA
:10219000F4FFE5CFF3FFE5CFF5FFE5CFF7FFE5CFA0
:1021A000F6FFE5CFEAFFE5CFE9FFE5CFDAFF110063
:1021B000D8CFE4FFE0CFE4FFE46EDACFE4FFE2CF74
:1021C000DAFFE9CFE4FFEACFE4FFF6CFE4FFF7CF91
:1021D000E4FFF5CFE4FFF3CFE4FFF4CFE4FFFACF61
:1021E000E4FF00EE00F0100EE80403E3EECFE4FF9E
:1021F000FBD700EE10F0040EE80403E3EECFE4FF9B
:10220000FBD7E652F2A432D0F294200EE66ED10E45
:10221000E66ED5EC15F0E552E55200019107000E8F
:10222000925B9151921120E1F40E916F010E926F29
:102230009051146E156AFF0E141806E1155004E152
:10224000CDEC13F0E66E02D090C0E6FFF8EC12F091
:10225000E552640E0001905D03E1010EE66E01D0CF
:10226000E66AEAEC12F0E55210EC13F0E55200EEEB
:1022700013F0040EE80403E3E5CFEDFFFBD700EE17
:102280000FF0100EE80403E3E5CFEDFFFBD7E5CF39
:10229000FAFFE5CFF4FFE5CFF3FFE5CFF5FFE5CF9C
:1022A000F7FFE5CFF6FFE5CFEAFFE5CFE9FFE5CFA2
:1022B000DAFFE550E5CFE0FFE5CFD8FF100004D806
:1022C00076EC10F041D8FED70F0EC11202D822EFE3
:1022D00008F00001946B956B966B976BD0EC12F045
:1022E000120EE66EF8EC12F0E552000EE66EE66AAB
:1022F0008CEC15F0E552E5520001936FE8500308AD
:102300000AE2936BE66A000EE66EE66A9AEC15F056
:10231000E552E552E55293C0E6FF7EEC13F0E5523C
:102320009F0EE66EF1EC15F0E552200EE66ED10E32
:10233000E66ED5EC15F0E552E552F194F28AF28C96
:102340000001010E986F1200200E0001E76E601967
:10235000E8AE02D0E73402D0E750605D01E2A3D0DE
:102360006D50020B01E0120000019451951102E141
:10237000000E08D094C0E9FF95C0EAFFEF50800B33
:1023800001E0010E000901E08ED005010051810A33
:102390001EE0010A05E0FF0A73E101C590F070D06C
:1023A00001C593F000019351030801E2936B93C0C0
:1023B000E6FF7EEC13F0E55293C0E6FF000EE66EFA
:1023C000E66A9AEC15F0E552E552E55259D0810ED5
:1023D000406FCDEC13F00501416FE66AF8EC13F0A5
:1023E000E552F4CF10F0116AF4CF42F5E66AF8EC4A
:1023F00013F0E552F3CF10F0F4CF11F0F3500501D4
:10240000436F010EE66EF8EC13F0E552F4CF10F0D6
:10241000116AF4CF44F5010EE66EF8EC13F0E552C4
:10242000F3CF10F0F4CF11F0F3500501456F0BEC32
:1024300013F00501466F93C047F5000196519711BF
:1024400002E1000E08D096C0E9FF97C0EAFFEF5006
:10245000800B01E0010E000913E1400EE66E400E14
:10246000E66E050EE66E010EE66EE66EA0EC0FF06F
:10247000106E050EE15E1050F3CF96F0F4CF97F09A
:10248000400EE66E000EE66E050EE66EE66A010E82
:10249000E66EA0EC0FF0106E050EE15E1050F3CF6B
:1024A00094F0F4CF95F01200120012001200120006
:1024B00016EF14F012001E0EE66E010EE66EFCEC36
:1024C0000EF0E552E552400EE66E000EE66E050E89
:1024D000E66EE66A010EE66EA0EC0FF0106E050ED9
:1024E000E15E1050F3CF94F0F4CF95F012006D84BC
:1024F0000001080E9E6F070E9F6F9E07000E9F5BE8
:102500009E519F11FAE16D941200D9CFE6FFE1CF01
:10251000D9FFFD0EDBCF08F0FE0EDBCF09F0720E07
:10252000081801E1095033E0E868081802E17F0E5D
:1025300009182BE0740E081801E1095024E0750E0B
:10254000081801E109501DE0730E081801E1095057
:1025500016E0030E081801E109500FE0020E0818FA
:1025600001E1095008E0010E081801E1095001E0FD
:1025700010D0A1DF0FD09EDF0DD09ADF0BD096DFF9
:1025800009D092DF07D091DF05D091DF03D00000A2
:1025900001D000D0010E00D0E552E7CFD9FF1200E4
:1025A000030E926E040E936E946A8A868B8C8B8EC9
:1025B0008B848B828B80898A8988898689848A82A8
:1025C0008A988A9A010EC26E0D0EC16EAE0EC06E52
:1025D000F19E1200D9CFE6FFE1CFD9FFFE0EDB045A
:1025E00002E18A9601D08A86E552E7CFD9FF120030
:1025F000D9CFE6FFE1CFD9FF650EF36EFE0EDBCF3C
:10260000F4FFF350F45C03E2FE0EDBCF99F0E552E9
:10261000E7CFD9FF12008150040B01E0010E120038
:10262000D9CFE6FFE1CFD9FF020EE1260001995193
:10263000106E116AFF0E101806E1115004E10A0E27
:10264000DF6EDE522AD0640E995D04E1DF6A010E6E
:10265000DB6A24D00A0E106E0E6E99C009F045ECAC
:1026600016F00550DF6E0A0E0001995D14E3640E4A
:10267000116E0E6E99C009F045EC16F005C010F011
:102680000A0E126E0E6E05C009F045EC16F0010E32
:1026900009C0DBFF03D0DE520A0EDD6E00019A2B6B
:1026A0009A0504E18B9CDFCFE6FF17D0050ED8809A
:1026B0009B559A5D02E18B8C0ED0060E9A5D05E16A
:1026C0008B9E010EDBCFE6FF08D00A0ED8809B550B
:1026D0009A5D06E18B8E0A0EE66E23D8E55204D091
:1026E0000A0E9A5D01E39A6B020EE15C02E2E16A76
:1026F000E552E16EE552E7CFD9FF1200D9CFE6FFF0
:10270000E1CFD9FF040EF36EFE0EDBCFF4FFF350E2
:10271000F45C03E2FE0EDBCF9BF0E552E7CFD9FF7E
:102720001200D9CFE6FFE1CFD9FF3C0E8912070E88
:102730008B12FE0EDB50090A28E0010A24E00F0A82
:1027400020E0010A1AE0030A16E0010A10E0070A75
:102750000CE0010A06E0030A0CE0010A1AE1C70EC8
:1027600015D0CB0E8916F90E13D0DB0E0FD0F30E59
:102770008916FC0E0DD0D30E01D0C30E8916FA0EA9
:1027800007D0899604D0C30E01D0D30E8916F80E57
:102790008B16E552E7CFD9FF1200E66A29D8E55239
:1027A000F3CF06F0F4CF07F0086A096AE80E0B6E63
:1027B000030E0C6E0D6A0E6A20EC15F002C006F0D6
:1027C00003C007F004C008F005C009F09C0E065EC7
:1027D0008F0E075A010E085A000E095AFE0E0B6E94
:1027E000070E0C6E0D6A0E6A58EC15F006501200BA
:1027F000D9CFE6FFE1CFD9FFFE0EDB50010A08E09A
:10280000010A0EE1010EC26EC282C2B2FED705D02D
:10281000050EC26EC282C2B2FED753EC16F002D0D1
:0C282000F36AF46AE552E7CFD9FF12001A
:04282C000401205132
:102830001F0B010801E01200245101E01200060EF6
:10284000215D1EE12351230A1BE0010A0CE0030A6B
:1028500017E10001610514E10001180E716F290EE6
:10286000726F090E09D0000161050AE100017D0EB9
:10287000716F290E726F1D0E746F756BC00E736FC2
:1028800004012051600BE842E842E842E842E84295
:10289000010801E0120021510B0A26E0080A19E0A4
:1028A000090A11E0080A05E00B0A23E0080A21E002
:1028B000120000019C0E716F000E726F010E746F9A
:1028C000756BC10E0FD00001800E736F23C49CF096
:1028D000120000019D0E716F000E726F010E746F79
:1028E000756B810E736F12000001800E736F22C42E
:0428F0009DF0120045
:0C28F4001201000200000008EA2211009E
:1029000002000102000109022900010100C0320990
:102910000400000203000000092111010001221D32
:102920000007058103400001070501034000010481
:102930000309041C03420069007400200054007263
:102940000061006400650020004F006E0065002EED
:1029500003410053004F004F005600450020005532
:1029600000530042002000540065006D00700065B7
:10297000007200610074007500720065000600FFBF
:102980000901A10119012940150026FF00750895CC
:10299000408100190129409100C006292F293329BF
:0229A0004F29BD
:0E29A2002A0EF66E100EF76E000EF86E000193
:1029B0000900F5508B6F0900F5508C6F03E18B67B0
:1029C00001D03DD00900F550866F0900F550876FA2
:1029D0000900F550886F09000900F550E96E0900FB
:1029E000F550EA6E090009000900F550896F0900E9
:1029F000F5508A6F09000900F6CF8DF0F7CF8EF001
:102A0000F8CF8FF086C0F6FF87C0F7FF88C0F8FFC9
:102A10000001895302E18A5307E00900F550EE6E88
:102A20008907F8E28A07F9D78DC0F6FF8EC0F7FF55
:102A30008FC0F8FF00018B07000E8C5BBFD7120020
:102A400006500B02F3CF02F0F4CF03F00C02F35068
:102A50000326000EF420046E06500D02F3500426E7
:102A6000000EF420056E06500E02F35005260750A6
:102A70000B02F3500326F4500422000E05220750E7
:102A80000C02F3500426F450052207500D02F350B7
:102A9000052608500B02F3500426F4500522085076
:102AA0000C02F350052609500B02F35005261200C4
:102AB000006AE86A0EAE65EF15F00B6C0C1E0D1E79
:102AC0000E1E0C220D220E22001E09AE70EF15F014
:102AD000066C071E081E091E072208220922001E76
:102AE000B1EC15F009BE87EF15F000AE000C066CD6
:102AF000071E081E091EE86A072208220922026C26
:102B0000031E041E051E032204220522000C00BE23
:082B100077EF15F00188FF0CBE
:082B1800D9CFE6FFE1CFD9FFA0
:102B2000FD0EDB50A96EA66AA680A850E552E7CF3D
:102B3000D9FF1200D9CFE6FFE1CFD9FFFD0EDB5060
:102B4000A96EFC0EDB50A86E040EA66E550EA76E85
:102B5000AA0EA76EA682A6B2FED7E552E7CFD9FF8E
:022B6000120061
:0E2B6200056A046A036A026A200EE76ED890C4
:102B70000636073608360936023603360436053679
:102B80000B50025C0C5003580D5004580E50055861
:102B900009E30B50025E0C50035A0D50045A0E50BC
:0A2BA000055A062AE72EE4D71200BA
:062BAA00D9CFE6FFDACFEF
:102BB000E6FFE1CFD9FFE2CFDAFFE652E652FC0EA4
:102BC000DBCFDEFFDBCFDDFF010EDB50D76EDF504A
:102BD000D66EE552E552E552E5CFDAFFE7CFD9FFF1
:022BE0001200E1
:0E2BE200D9CFE6FFDACFE6FFE1CFD9FFE2CF91
:102BF000DAFFFD0EDB507F0BD56ED76AD66AF294F2
:102C0000FD0EDBAE02D0F28A01D0F29AD58EE552EB
:0A2C1000E5CFDAFFE7CFD9FF12008D
:062C1A00FE0EE3CFE9FF0E
:102C2000FF0EE3CFEAFFE9CFF3FFEACFF4FFFB0E9D
:102C3000E35003E1FC0EE35009E0FB0EE30602E281
:0E2C4000FC0EE306FD0EE350EE6EF1D712001F
:022C4E00000E76
:102C5000F36E00EE00F0040E01D81200EA6002D01C
:0E2C6000EE6AFCD7F350E9601200EE6AFCD772
:022C6E0013EE63
:102C700000F023EE00F0F86A019CD1EC14F05CEC5B
:0A2C800016F05FEC11F0FBD7120014
:062C8A00056A080EE76E6A
:102C9000D890093605360E50055C02E3056E092A08
:062CA000E72EF7D7120039
:0A2CA600C450136E126AC3501210DE
:082CB000F36E13C0F4FF1200E3
:022CB800120008
:062CBA00FFF40100000020
:032CC00000000110
:032CC3000000000E
:020000040030CA
:01000000E41B
:010001003EC0
:01000200FFFE
:01000300FEFE
:010005007981
:010006009B5E
:01000800FFF8
:01000900FFF7
:01000A00FFF6
:01000B00FFF5
:01000C00FFF4
:01000D00FFF3
:00000001FF
